{
  "contractName": "Lockdrop",
  "abi": [
    {
      "inputs": [
        {
          "internalType": "uint256",
          "name": "startTime",
          "type": "uint256"
        }
      ],
      "payable": false,
      "stateMutability": "nonpayable",
      "type": "constructor"
    },
    {
      "anonymous": false,
      "inputs": [
        {
          "indexed": false,
          "internalType": "address",
          "name": "tokenContractAddress",
          "type": "address"
        },
        {
          "indexed": false,
          "internalType": "contract Lock",
          "name": "lockAddr",
          "type": "address"
        },
        {
          "indexed": false,
          "internalType": "enum Lockdrop.Term",
          "name": "term",
          "type": "uint8"
        },
        {
          "indexed": false,
          "internalType": "uint256",
          "name": "tokenERC20Amount",
          "type": "uint256"
        },
        {
          "indexed": false,
          "internalType": "bytes",
          "name": "dataHighwayPublicKey",
          "type": "bytes"
        },
        {
          "indexed": false,
          "internalType": "uint256",
          "name": "time",
          "type": "uint256"
        }
      ],
      "name": "ClaimLockedApproved",
      "type": "event"
    },
    {
      "anonymous": false,
      "inputs": [
        {
          "indexed": false,
          "internalType": "address",
          "name": "tokenContractAddress",
          "type": "address"
        },
        {
          "indexed": false,
          "internalType": "contract Lock",
          "name": "lockAddr",
          "type": "address"
        },
        {
          "indexed": false,
          "internalType": "enum Lockdrop.Term",
          "name": "term",
          "type": "uint8"
        },
        {
          "indexed": false,
          "internalType": "uint256",
          "name": "tokenERC20Amount",
          "type": "uint256"
        },
        {
          "indexed": false,
          "internalType": "bytes",
          "name": "dataHighwayPublicKey",
          "type": "bytes"
        },
        {
          "indexed": false,
          "internalType": "uint256",
          "name": "time",
          "type": "uint256"
        }
      ],
      "name": "ClaimLockedPending",
      "type": "event"
    },
    {
      "anonymous": false,
      "inputs": [
        {
          "indexed": false,
          "internalType": "address",
          "name": "tokenContractAddress",
          "type": "address"
        },
        {
          "indexed": false,
          "internalType": "contract Lock",
          "name": "lockAddr",
          "type": "address"
        },
        {
          "indexed": false,
          "internalType": "uint256",
          "name": "time",
          "type": "uint256"
        }
      ],
      "name": "ClaimLockedRejected",
      "type": "event"
    },
    {
      "anonymous": false,
      "inputs": [
        {
          "indexed": false,
          "internalType": "address",
          "name": "tokenContractAddress",
          "type": "address"
        },
        {
          "indexed": true,
          "internalType": "address",
          "name": "contractAddr",
          "type": "address"
        },
        {
          "indexed": false,
          "internalType": "enum Lockdrop.Term",
          "name": "term",
          "type": "uint8"
        },
        {
          "indexed": false,
          "internalType": "uint256",
          "name": "tokenERC20Amount",
          "type": "uint256"
        },
        {
          "indexed": false,
          "internalType": "bytes",
          "name": "dataHighwayPublicKey",
          "type": "bytes"
        },
        {
          "indexed": false,
          "internalType": "uint256",
          "name": "time",
          "type": "uint256"
        }
      ],
      "name": "ClaimSignalledApproved",
      "type": "event"
    },
    {
      "anonymous": false,
      "inputs": [
        {
          "indexed": false,
          "internalType": "address",
          "name": "tokenContractAddress",
          "type": "address"
        },
        {
          "indexed": true,
          "internalType": "address",
          "name": "contractAddr",
          "type": "address"
        },
        {
          "indexed": false,
          "internalType": "enum Lockdrop.Term",
          "name": "term",
          "type": "uint8"
        },
        {
          "indexed": false,
          "internalType": "uint256",
          "name": "tokenERC20Amount",
          "type": "uint256"
        },
        {
          "indexed": false,
          "internalType": "bytes",
          "name": "dataHighwayPublicKey",
          "type": "bytes"
        },
        {
          "indexed": false,
          "internalType": "uint256",
          "name": "time",
          "type": "uint256"
        }
      ],
      "name": "ClaimSignalledPending",
      "type": "event"
    },
    {
      "anonymous": false,
      "inputs": [
        {
          "indexed": false,
          "internalType": "address",
          "name": "tokenContractAddress",
          "type": "address"
        },
        {
          "indexed": true,
          "internalType": "address",
          "name": "contractAddr",
          "type": "address"
        },
        {
          "indexed": false,
          "internalType": "enum Lockdrop.Term",
          "name": "term",
          "type": "uint8"
        },
        {
          "indexed": false,
          "internalType": "uint256",
          "name": "tokenERC20Amount",
          "type": "uint256"
        },
        {
          "indexed": false,
          "internalType": "bytes",
          "name": "dataHighwayPublicKey",
          "type": "bytes"
        },
        {
          "indexed": false,
          "internalType": "uint256",
          "name": "time",
          "type": "uint256"
        }
      ],
      "name": "ClaimSignalledRejected",
      "type": "event"
    },
    {
      "anonymous": false,
      "inputs": [
        {
          "indexed": true,
          "internalType": "address",
          "name": "lockdropCreator",
          "type": "address"
        },
        {
          "indexed": true,
          "internalType": "address",
          "name": "owner",
          "type": "address"
        },
        {
          "indexed": false,
          "internalType": "enum Lockdrop.Term",
          "name": "term",
          "type": "uint8"
        },
        {
          "indexed": false,
          "internalType": "uint256",
          "name": "tokenERC20Amount",
          "type": "uint256"
        },
        {
          "indexed": false,
          "internalType": "bytes",
          "name": "dataHighwayPublicKey",
          "type": "bytes"
        },
        {
          "indexed": false,
          "internalType": "address",
          "name": "tokenContractAddress",
          "type": "address"
        },
        {
          "indexed": false,
          "internalType": "contract Lock",
          "name": "lockAddr",
          "type": "address"
        },
        {
          "indexed": false,
          "internalType": "bool",
          "name": "isValidator",
          "type": "bool"
        },
        {
          "indexed": false,
          "internalType": "uint256",
          "name": "time",
          "type": "uint256"
        }
      ],
      "name": "Locked",
      "type": "event"
    },
    {
      "anonymous": false,
      "inputs": [
        {
          "indexed": true,
          "internalType": "address",
          "name": "lockdropCreator",
          "type": "address"
        },
        {
          "indexed": true,
          "internalType": "address",
          "name": "contractAddr",
          "type": "address"
        },
        {
          "indexed": false,
          "internalType": "enum Lockdrop.Term",
          "name": "term",
          "type": "uint8"
        },
        {
          "indexed": false,
          "internalType": "uint256",
          "name": "tokenERC20Amount",
          "type": "uint256"
        },
        {
          "indexed": false,
          "internalType": "bytes",
          "name": "dataHighwayPublicKey",
          "type": "bytes"
        },
        {
          "indexed": false,
          "internalType": "address",
          "name": "tokenContractAddress",
          "type": "address"
        },
        {
          "indexed": false,
          "internalType": "uint256",
          "name": "time",
          "type": "uint256"
        }
      ],
      "name": "Signaled",
      "type": "event"
    },
    {
      "constant": true,
      "inputs": [],
      "name": "LOCK_DROP_PERIOD",
      "outputs": [
        {
          "internalType": "uint256",
          "name": "",
          "type": "uint256"
        }
      ],
      "payable": false,
      "stateMutability": "view",
      "type": "function"
    },
    {
      "constant": true,
      "inputs": [],
      "name": "LOCK_END_TIME",
      "outputs": [
        {
          "internalType": "uint256",
          "name": "",
          "type": "uint256"
        }
      ],
      "payable": false,
      "stateMutability": "view",
      "type": "function"
    },
    {
      "constant": true,
      "inputs": [],
      "name": "LOCK_START_TIME",
      "outputs": [
        {
          "internalType": "uint256",
          "name": "",
          "type": "uint256"
        }
      ],
      "payable": false,
      "stateMutability": "view",
      "type": "function"
    },
    {
      "constant": true,
      "inputs": [],
      "name": "lockdropCreator",
      "outputs": [
        {
          "internalType": "address",
          "name": "",
          "type": "address"
        }
      ],
      "payable": false,
      "stateMutability": "view",
      "type": "function"
    },
    {
      "constant": true,
      "inputs": [
        {
          "internalType": "address",
          "name": "user",
          "type": "address"
        }
      ],
      "name": "getLockWallets",
      "outputs": [
        {
          "internalType": "address[]",
          "name": "",
          "type": "address[]"
        }
      ],
      "payable": false,
      "stateMutability": "view",
      "type": "function"
    },
    {
      "constant": false,
      "inputs": [
        {
          "internalType": "address",
          "name": "owner",
          "type": "address"
        },
        {
          "internalType": "enum Lockdrop.Term",
          "name": "term",
          "type": "uint8"
        },
        {
          "internalType": "uint256",
          "name": "tokenERC20Amount",
          "type": "uint256"
        },
        {
          "internalType": "bytes",
          "name": "dataHighwayPublicKey",
          "type": "bytes"
        },
        {
          "internalType": "address",
          "name": "_tokenContractAddress",
          "type": "address"
        },
        {
          "internalType": "bool",
          "name": "isValidator",
          "type": "bool"
        }
      ],
      "name": "lock",
      "outputs": [
        {
          "internalType": "address",
          "name": "lockWallet",
          "type": "address"
        }
      ],
      "payable": false,
      "stateMutability": "nonpayable",
      "type": "function"
    },
    {
      "constant": false,
      "inputs": [
        {
          "internalType": "address",
          "name": "contractAddr",
          "type": "address"
        },
        {
          "internalType": "uint32",
          "name": "nonce",
          "type": "uint32"
        },
        {
          "internalType": "enum Lockdrop.Term",
          "name": "term",
          "type": "uint8"
        },
        {
          "internalType": "uint256",
          "name": "tokenERC20Amount",
          "type": "uint256"
        },
        {
          "internalType": "bytes",
          "name": "dataHighwayPublicKey",
          "type": "bytes"
        },
        {
          "internalType": "address",
          "name": "_tokenContractAddress",
          "type": "address"
        }
      ],
      "name": "signal",
      "outputs": [],
      "payable": false,
      "stateMutability": "nonpayable",
      "type": "function"
    },
    {
      "constant": true,
      "inputs": [
        {
          "internalType": "address",
          "name": "user",
          "type": "address"
        }
      ],
      "name": "getClaimsLockedPending",
      "outputs": [
        {
          "internalType": "address[]",
          "name": "",
          "type": "address[]"
        }
      ],
      "payable": false,
      "stateMutability": "view",
      "type": "function"
    },
    {
      "constant": true,
      "inputs": [
        {
          "internalType": "address",
          "name": "user",
          "type": "address"
        }
      ],
      "name": "getClaimsLockedApproved",
      "outputs": [
        {
          "internalType": "address[]",
          "name": "",
          "type": "address[]"
        }
      ],
      "payable": false,
      "stateMutability": "view",
      "type": "function"
    },
    {
      "constant": true,
      "inputs": [
        {
          "internalType": "address",
          "name": "user",
          "type": "address"
        }
      ],
      "name": "getClaimsLockedRejected",
      "outputs": [
        {
          "internalType": "address[]",
          "name": "",
          "type": "address[]"
        }
      ],
      "payable": false,
      "stateMutability": "view",
      "type": "function"
    },
    {
      "constant": true,
      "inputs": [
        {
          "internalType": "address",
          "name": "user",
          "type": "address"
        }
      ],
      "name": "getClaimsSignalledPending",
      "outputs": [
        {
          "internalType": "address[]",
          "name": "",
          "type": "address[]"
        }
      ],
      "payable": false,
      "stateMutability": "view",
      "type": "function"
    },
    {
      "constant": true,
      "inputs": [
        {
          "internalType": "address",
          "name": "user",
          "type": "address"
        }
      ],
      "name": "getClaimsSignalledApproved",
      "outputs": [
        {
          "internalType": "address[]",
          "name": "",
          "type": "address[]"
        }
      ],
      "payable": false,
      "stateMutability": "view",
      "type": "function"
    },
    {
      "constant": true,
      "inputs": [
        {
          "internalType": "address",
          "name": "user",
          "type": "address"
        }
      ],
      "name": "getClaimsSignalledRejected",
      "outputs": [
        {
          "internalType": "address[]",
          "name": "",
          "type": "address[]"
        }
      ],
      "payable": false,
      "stateMutability": "view",
      "type": "function"
    },
    {
      "constant": false,
      "inputs": [
        {
          "internalType": "address",
          "name": "_tokenContractAddress",
          "type": "address"
        },
        {
          "internalType": "contract Lock",
          "name": "lockAddr",
          "type": "address"
        },
        {
          "internalType": "enum Lockdrop.Term",
          "name": "term",
          "type": "uint8"
        },
        {
          "internalType": "uint256",
          "name": "tokenERC20Amount",
          "type": "uint256"
        },
        {
          "internalType": "bytes",
          "name": "dataHighwayPublicKey",
          "type": "bytes"
        }
      ],
      "name": "claimLockedApproved",
      "outputs": [],
      "payable": false,
      "stateMutability": "nonpayable",
      "type": "function"
    },
    {
      "constant": false,
      "inputs": [
        {
          "internalType": "address",
          "name": "_tokenContractAddress",
          "type": "address"
        },
        {
          "internalType": "contract Lock",
          "name": "lockAddr",
          "type": "address"
        }
      ],
      "name": "claimLockedRejected",
      "outputs": [],
      "payable": false,
      "stateMutability": "nonpayable",
      "type": "function"
    },
    {
      "constant": false,
      "inputs": [
        {
          "internalType": "address",
          "name": "_tokenContractAddress",
          "type": "address"
        },
        {
          "internalType": "address",
          "name": "contractAddr",
          "type": "address"
        },
        {
          "internalType": "enum Lockdrop.Term",
          "name": "term",
          "type": "uint8"
        },
        {
          "internalType": "uint256",
          "name": "tokenERC20Amount",
          "type": "uint256"
        },
        {
          "internalType": "bytes",
          "name": "dataHighwayPublicKey",
          "type": "bytes"
        }
      ],
      "name": "claimSignalledApproved",
      "outputs": [],
      "payable": false,
      "stateMutability": "nonpayable",
      "type": "function"
    },
    {
      "constant": false,
      "inputs": [
        {
          "internalType": "address",
          "name": "_tokenContractAddress",
          "type": "address"
        },
        {
          "internalType": "address",
          "name": "contractAddr",
          "type": "address"
        },
        {
          "internalType": "enum Lockdrop.Term",
          "name": "term",
          "type": "uint8"
        },
        {
          "internalType": "uint256",
          "name": "tokenERC20Amount",
          "type": "uint256"
        },
        {
          "internalType": "bytes",
          "name": "dataHighwayPublicKey",
          "type": "bytes"
        }
      ],
      "name": "claimSignalledRejected",
      "outputs": [],
      "payable": false,
      "stateMutability": "nonpayable",
      "type": "function"
    },
    {
      "constant": true,
      "inputs": [
        {
          "internalType": "address",
          "name": "_origin",
          "type": "address"
        },
        {
          "internalType": "uint32",
          "name": "_nonce",
          "type": "uint32"
        }
      ],
      "name": "addressFrom",
      "outputs": [
        {
          "internalType": "address",
          "name": "",
          "type": "address"
        }
      ],
      "payable": false,
      "stateMutability": "pure",
      "type": "function"
    }
  ],
  "bytecode": "0x608060405234801561001057600080fd5b50604051613b05380380613b058339818101604052602081101561003357600080fd5b8101908080519060200190929190505050336000806101000a81548173ffffffffffffffffffffffffffffffffffffffff021916908373ffffffffffffffffffffffffffffffffffffffff1602179055508060088190555062794a00810160098190555050613a5e806100a76000396000f3fe608060405234801561001057600080fd5b50600436106101165760003560e01c8063808fe745116100a2578063a5fe0c3311610071578063a5fe0c3314610878578063e53a771e1461098a578063ea06e2fe14610a9c578063f20760bf14610b35578063fe2b0cd114610b7f57610116565b8063808fe745146106c95780638cf0cb55146107625780638f18318314610780578063a2c3012d1461081457610116565b80634363d007116100e95780634363d007146102895780634b3817aa146103225780634b9656ab1461040257806361c833e11461049b578063763b8e2e146105ad57610116565b806315f2e2f71461011b57806319f4102f146101395780632015b566146101d2578063396214661461026b575b600080fd5b610123610c18565b6040518082815260200191505060405180910390f35b61017b6004803603602081101561014f57600080fd5b81019080803573ffffffffffffffffffffffffffffffffffffffff169060200190929190505050610c1e565b6040518080602001828103825283818151815260200191508051906020019060200280838360005b838110156101be5780820151818401526020810190506101a3565b505050509050019250505060405180910390f35b610214600480360360208110156101e857600080fd5b81019080803573ffffffffffffffffffffffffffffffffffffffff169060200190929190505050610ceb565b6040518080602001828103825283818151815260200191508051906020019060200280838360005b8381101561025757808201518184015260208101905061023c565b505050509050019250505060405180910390f35b610273610db8565b6040518082815260200191505060405180910390f35b6102cb6004803603602081101561029f57600080fd5b81019080803573ffffffffffffffffffffffffffffffffffffffff169060200190929190505050610dbe565b6040518080602001828103825283818151815260200191508051906020019060200280838360005b8381101561030e5780820151818401526020810190506102f3565b505050509050019250505060405180910390f35b610400600480360360c081101561033857600080fd5b81019080803573ffffffffffffffffffffffffffffffffffffffff169060200190929190803563ffffffff169060200190929190803560ff169060200190929190803590602001909291908035906020019064010000000081111561039c57600080fd5b8201836020820111156103ae57600080fd5b803590602001918460018302840111640100000000831117156103d057600080fd5b9091929391929390803573ffffffffffffffffffffffffffffffffffffffff169060200190929190505050610e8b565b005b6104446004803603602081101561041857600080fd5b81019080803573ffffffffffffffffffffffffffffffffffffffff16906020019092919050505061151d565b6040518080602001828103825283818151815260200191508051906020019060200280838360005b8381101561048757808201518184015260208101905061046c565b505050509050019250505060405180910390f35b6105ab600480360360a08110156104b157600080fd5b81019080803573ffffffffffffffffffffffffffffffffffffffff169060200190929190803573ffffffffffffffffffffffffffffffffffffffff169060200190929190803560ff169060200190929190803590602001909291908035906020019064010000000081111561052557600080fd5b82018360208201111561053757600080fd5b8035906020019184600183028401116401000000008311171561055957600080fd5b91908080601f016020809104026020016040519081016040528093929190818152602001838380828437600081840152601f19601f8201169050808301925050505050505091929192905050506115ea565b005b610687600480360360c08110156105c357600080fd5b81019080803573ffffffffffffffffffffffffffffffffffffffff169060200190929190803560ff169060200190929190803590602001909291908035906020019064010000000081111561061757600080fd5b82018360208201111561062957600080fd5b8035906020019184600183028401116401000000008311171561064b57600080fd5b9091929391929390803573ffffffffffffffffffffffffffffffffffffffff169060200190929190803515159060200190929190505050611846565b604051808273ffffffffffffffffffffffffffffffffffffffff1673ffffffffffffffffffffffffffffffffffffffff16815260200191505060405180910390f35b61070b600480360360208110156106df57600080fd5b81019080803573ffffffffffffffffffffffffffffffffffffffff169060200190929190505050611e5b565b6040518080602001828103825283818151815260200191508051906020019060200280838360005b8381101561074e578082015181840152602081019050610733565b505050509050019250505060405180910390f35b61076a611f28565b6040518082815260200191505060405180910390f35b6107d26004803603604081101561079657600080fd5b81019080803573ffffffffffffffffffffffffffffffffffffffff169060200190929190803563ffffffff169060200190929190505050611f2f565b604051808273ffffffffffffffffffffffffffffffffffffffff1673ffffffffffffffffffffffffffffffffffffffff16815260200191505060405180910390f35b6108766004803603604081101561082a57600080fd5b81019080803573ffffffffffffffffffffffffffffffffffffffff169060200190929190803573ffffffffffffffffffffffffffffffffffffffff16906020019092919050505061276d565b005b610988600480360360a081101561088e57600080fd5b81019080803573ffffffffffffffffffffffffffffffffffffffff169060200190929190803573ffffffffffffffffffffffffffffffffffffffff169060200190929190803560ff169060200190929190803590602001909291908035906020019064010000000081111561090257600080fd5b82018360208201111561091457600080fd5b8035906020019184600183028401116401000000008311171561093657600080fd5b91908080601f016020809104026020016040519081016040528093929190818152602001838380828437600081840152601f19601f820116905080830192505050505050509192919290505050612958565b005b610a9a600480360360a08110156109a057600080fd5b81019080803573ffffffffffffffffffffffffffffffffffffffff169060200190929190803573ffffffffffffffffffffffffffffffffffffffff169060200190929190803560ff1690602001909291908035906020019092919080359060200190640100000000811115610a1457600080fd5b820183602082011115610a2657600080fd5b80359060200191846001830284011164010000000083111715610a4857600080fd5b91908080601f016020809104026020016040519081016040528093929190818152602001838380828437600081840152601f19601f820116905080830192505050505050509192919290505050612bdf565b005b610ade60048036036020811015610ab257600080fd5b81019080803573ffffffffffffffffffffffffffffffffffffffff169060200190929190505050612e49565b6040518080602001828103825283818151815260200191508051906020019060200280838360005b83811015610b21578082015181840152602081019050610b06565b505050509050019250505060405180910390f35b610b3d612f16565b604051808273ffffffffffffffffffffffffffffffffffffffff1673ffffffffffffffffffffffffffffffffffffffff16815260200191505060405180910390f35b610bc160048036036020811015610b9557600080fd5b81019080803573ffffffffffffffffffffffffffffffffffffffff169060200190929190505050612f3b565b6040518080602001828103825283818151815260200191508051906020019060200280838360005b83811015610c04578082015181840152602081019050610be9565b505050509050019250505060405180910390f35b60085481565b6060600560008373ffffffffffffffffffffffffffffffffffffffff1673ffffffffffffffffffffffffffffffffffffffff168152602001908152602001600020805480602002602001604051908101604052809291908181526020018280548015610cdf57602002820191906000526020600020905b8160009054906101000a900473ffffffffffffffffffffffffffffffffffffffff1673ffffffffffffffffffffffffffffffffffffffff1681526020019060010190808311610c95575b50505050509050919050565b6060600760008373ffffffffffffffffffffffffffffffffffffffff1673ffffffffffffffffffffffffffffffffffffffff168152602001908152602001600020805480602002602001604051908101604052809291908181526020018280548015610dac57602002820191906000526020600020905b8160009054906101000a900473ffffffffffffffffffffffffffffffffffffffff1673ffffffffffffffffffffffffffffffffffffffff1681526020019060010190808311610d62575b50505050509050919050565b60095481565b6060600260008373ffffffffffffffffffffffffffffffffffffffff1673ffffffffffffffffffffffffffffffffffffffff168152602001908152602001600020805480602002602001604051908101604052809291908181526020018280548015610e7f57602002820191906000526020600020905b8160009054906101000a900473ffffffffffffffffffffffffffffffffffffffff1673ffffffffffffffffffffffffffffffffffffffff1681526020019060010190808311610e35575b50505050509050919050565b600854421015610ee6576040517f08c379a000000000000000000000000000000000000000000000000000000000815260040180806020018281038252602781526020018061394f6027913960400191505060405180910390fd5b600954421115610f41576040517f08c379a00000000000000000000000000000000000000000000000000000000081526004018080602001828103825260268152602001806139ae6026913960400191505060405180910390fd5b8633878173ffffffffffffffffffffffffffffffffffffffff168373ffffffffffffffffffffffffffffffffffffffff16141561120057600560003373ffffffffffffffffffffffffffffffffffffffff1673ffffffffffffffffffffffffffffffffffffffff1681526020019081526020016000208a90806001815401808255809150509060018203906000526020600020016000909192909190916101000a81548173ffffffffffffffffffffffffffffffffffffffff021916908373ffffffffffffffffffffffffffffffffffffffff160217905550508973ffffffffffffffffffffffffffffffffffffffff166000809054906101000a900473ffffffffffffffffffffffffffffffffffffffff1673ffffffffffffffffffffffffffffffffffffffff167fceee775667738b926719ca68864881ae8821be92146f5c580d6b82e05a22734f8a8a8a8a8a42604051808760058111156110a157fe5b60ff168152602001868152602001806020018473ffffffffffffffffffffffffffffffffffffffff1673ffffffffffffffffffffffffffffffffffffffff1681526020018381526020018281038252868682818152602001925080828437600081840152601f19601f82011690508083019250505097505050505050505060405180910390a38973ffffffffffffffffffffffffffffffffffffffff167fc099ca992df0d12fd25dd16c2c731ff21d7ff7c8d1c9501acbc03a95ec4cf10d858a8a8a8a42604051808773ffffffffffffffffffffffffffffffffffffffff1673ffffffffffffffffffffffffffffffffffffffff1681526020018660058111156111a757fe5b60ff168152602001858152602001806020018381526020018281038252858582818152602001925080828437600081840152601f19601f82011690508083019250505097505050505050505060405180910390a2611511565b61120a8282611f2f565b73ffffffffffffffffffffffffffffffffffffffff168373ffffffffffffffffffffffffffffffffffffffff161461128d576040517f08c379a00000000000000000000000000000000000000000000000000000000081526004018080602001828103825260388152602001806139766038913960400191505060405180910390fd5b600560003373ffffffffffffffffffffffffffffffffffffffff1673ffffffffffffffffffffffffffffffffffffffff1681526020019081526020016000208a90806001815401808255809150509060018203906000526020600020016000909192909190916101000a81548173ffffffffffffffffffffffffffffffffffffffff021916908373ffffffffffffffffffffffffffffffffffffffff160217905550508973ffffffffffffffffffffffffffffffffffffffff166000809054906101000a900473ffffffffffffffffffffffffffffffffffffffff1673ffffffffffffffffffffffffffffffffffffffff167fceee775667738b926719ca68864881ae8821be92146f5c580d6b82e05a22734f8a8a8a8a8a42604051808760058111156113b657fe5b60ff168152602001868152602001806020018473ffffffffffffffffffffffffffffffffffffffff1673ffffffffffffffffffffffffffffffffffffffff1681526020018381526020018281038252868682818152602001925080828437600081840152601f19601f82011690508083019250505097505050505050505060405180910390a38973ffffffffffffffffffffffffffffffffffffffff167fc099ca992df0d12fd25dd16c2c731ff21d7ff7c8d1c9501acbc03a95ec4cf10d858a8a8a8a42604051808773ffffffffffffffffffffffffffffffffffffffff1673ffffffffffffffffffffffffffffffffffffffff1681526020018660058111156114bc57fe5b60ff168152602001858152602001806020018381526020018281038252858582818152602001925080828437600081840152601f19601f82011690508083019250505097505050505050505060405180910390a25b50505050505050505050565b6060600460008373ffffffffffffffffffffffffffffffffffffffff1673ffffffffffffffffffffffffffffffffffffffff1681526020019081526020016000208054806020026020016040519081016040528092919081815260200182805480156115de57602002820191906000526020600020905b8160009054906101000a900473ffffffffffffffffffffffffffffffffffffffff1673ffffffffffffffffffffffffffffffffffffffff1681526020019060010190808311611594575b50505050509050919050565b6000809054906101000a900473ffffffffffffffffffffffffffffffffffffffff1673ffffffffffffffffffffffffffffffffffffffff163373ffffffffffffffffffffffffffffffffffffffff161461168f576040517f08c379a00000000000000000000000000000000000000000000000000000000081526004018080602001828103825260288152602001806139d46028913960400191505060405180910390fd5b600760003373ffffffffffffffffffffffffffffffffffffffff1673ffffffffffffffffffffffffffffffffffffffff1681526020019081526020016000208490806001815401808255809150509060018203906000526020600020016000909192909190916101000a81548173ffffffffffffffffffffffffffffffffffffffff021916908373ffffffffffffffffffffffffffffffffffffffff160217905550508373ffffffffffffffffffffffffffffffffffffffff167f047e67414e830e8880884485b92a389f3e24fadf84d4afc2785b030705dc5b8e8685858542604051808673ffffffffffffffffffffffffffffffffffffffff1673ffffffffffffffffffffffffffffffffffffffff1681526020018560058111156117b157fe5b60ff16815260200184815260200180602001838152602001828103825284818151815260200191508051906020019080838360005b838110156118015780820151818401526020810190506117e6565b50505050905090810190601f16801561182e5780820380516001836020036101000a031916815260200191505b50965050505050505060405180910390a25050505050565b60006008544210156118a3576040517f08c379a000000000000000000000000000000000000000000000000000000000815260040180806020018281038252602781526020018061394f6027913960400191505060405180910390fd5b6009544211156118fe576040517f08c379a00000000000000000000000000000000000000000000000000000000081526004018080602001828103825260268152602001806139ae6026913960400191505060405180910390fd5b600083905060008173ffffffffffffffffffffffffffffffffffffffff166370a082318b6040518263ffffffff1660e01b8152600401808273ffffffffffffffffffffffffffffffffffffffff1673ffffffffffffffffffffffffffffffffffffffff16815260200191505060206040518083038186803b15801561198257600080fd5b505afa158015611996573d6000803e3d6000fd5b505050506040513d60208110156119ac57600080fd5b8101908080519060200190929190505050905060006119ca8a613008565b905060008060009054906101000a900473ffffffffffffffffffffffffffffffffffffffff168c838c8a604051611a009061316a565b808673ffffffffffffffffffffffffffffffffffffffff1673ffffffffffffffffffffffffffffffffffffffff1681526020018573ffffffffffffffffffffffffffffffffffffffff1673ffffffffffffffffffffffffffffffffffffffff1681526020018481526020018381526020018273ffffffffffffffffffffffffffffffffffffffff1673ffffffffffffffffffffffffffffffffffffffff16815260200195505050505050604051809103906000f080158015611ac6573d6000803e3d6000fd5b509050600160003373ffffffffffffffffffffffffffffffffffffffff1673ffffffffffffffffffffffffffffffffffffffff1681526020019081526020016000208190806001815401808255809150509060018203906000526020600020016000909192909190916101000a81548173ffffffffffffffffffffffffffffffffffffffff021916908373ffffffffffffffffffffffffffffffffffffffff16021790555050600260003373ffffffffffffffffffffffffffffffffffffffff1673ffffffffffffffffffffffffffffffffffffffff1681526020019081526020016000208190806001815401808255809150509060018203906000526020600020016000909192909190916101000a81548173ffffffffffffffffffffffffffffffffffffffff021916908373ffffffffffffffffffffffffffffffffffffffff160217905550508b73ffffffffffffffffffffffffffffffffffffffff166000809054906101000a900473ffffffffffffffffffffffffffffffffffffffff1673ffffffffffffffffffffffffffffffffffffffff167f74827f58d14f5c6a87a7f02acfbb52cb57e0dd1ee0d36e0db4cb1814d59fe8a88d8d8d8d8d888e4260405180896005811115611c9757fe5b60ff168152602001888152602001806020018673ffffffffffffffffffffffffffffffffffffffff1673ffffffffffffffffffffffffffffffffffffffff1681526020018573ffffffffffffffffffffffffffffffffffffffff1673ffffffffffffffffffffffffffffffffffffffff168152602001841515151581526020018381526020018281038252888882818152602001925080828437600081840152601f19601f820116905080830192505050995050505050505050505060405180910390a37fd67f76a35fc34466087d51b2cd82ffa76d8b65681b562c5cf6919c2d7db4146287828d8d8d8d42604051808873ffffffffffffffffffffffffffffffffffffffff1673ffffffffffffffffffffffffffffffffffffffff1681526020018773ffffffffffffffffffffffffffffffffffffffff1673ffffffffffffffffffffffffffffffffffffffff168152602001866005811115611df757fe5b60ff168152602001858152602001806020018381526020018281038252858582818152602001925080828437600081840152601f19601f8201169050808301925050509850505050505050505060405180910390a150505050979650505050505050565b6060600660008373ffffffffffffffffffffffffffffffffffffffff1673ffffffffffffffffffffffffffffffffffffffff168152602001908152602001600020805480602002602001604051908101604052809291908181526020018280548015611f1c57602002820191906000526020600020905b8160009054906101000a900473ffffffffffffffffffffffffffffffffffffffff1673ffffffffffffffffffffffffffffffffffffffff1681526020019060010190808311611ed2575b50505050509050919050565b62794a0081565b6000808263ffffffff16141561208f5760d660f81b609460f81b84608060f81b60405160200180857effffffffffffffffffffffffffffffffffffffffffffffffffffffffffffff19167effffffffffffffffffffffffffffffffffffffffffffffffffffffffffffff19168152600101847effffffffffffffffffffffffffffffffffffffffffffffffffffffffffffff19167effffffffffffffffffffffffffffffffffffffffffffffffffffffffffffff191681526001018373ffffffffffffffffffffffffffffffffffffffff1673ffffffffffffffffffffffffffffffffffffffff1660601b8152601401827effffffffffffffffffffffffffffffffffffffffffffffffffffffffffffff19167effffffffffffffffffffffffffffffffffffffffffffffffffffffffffffff191681526001019450505050506040516020818303038152906040528051906020012060001c9050612767565b607f8263ffffffff16116121ae5760d660f81b609460f81b848460405160200180857effffffffffffffffffffffffffffffffffffffffffffffffffffffffffffff19167effffffffffffffffffffffffffffffffffffffffffffffffffffffffffffff19168152600101847effffffffffffffffffffffffffffffffffffffffffffffffffffffffffffff19167effffffffffffffffffffffffffffffffffffffffffffffffffffffffffffff191681526001018373ffffffffffffffffffffffffffffffffffffffff1673ffffffffffffffffffffffffffffffffffffffff1660601b81526014018260ff1660ff1660f81b81526001019450505050506040516020818303038152906040528051906020012060001c9050612767565b60ff8263ffffffff161161231d5760d760f81b609460f81b84608160f81b8560405160200180867effffffffffffffffffffffffffffffffffffffffffffffffffffffffffffff19167effffffffffffffffffffffffffffffffffffffffffffffffffffffffffffff19168152600101857effffffffffffffffffffffffffffffffffffffffffffffffffffffffffffff19167effffffffffffffffffffffffffffffffffffffffffffffffffffffffffffff191681526001018473ffffffffffffffffffffffffffffffffffffffff1673ffffffffffffffffffffffffffffffffffffffff1660601b8152601401837effffffffffffffffffffffffffffffffffffffffffffffffffffffffffffff19167effffffffffffffffffffffffffffffffffffffffffffffffffffffffffffff191681526001018260ff1660ff1660f81b8152600101955050505050506040516020818303038152906040528051906020012060001c9050612767565b61ffff8263ffffffff161161248f5760d860f81b609460f81b84608260f81b8560405160200180867effffffffffffffffffffffffffffffffffffffffffffffffffffffffffffff19167effffffffffffffffffffffffffffffffffffffffffffffffffffffffffffff19168152600101857effffffffffffffffffffffffffffffffffffffffffffffffffffffffffffff19167effffffffffffffffffffffffffffffffffffffffffffffffffffffffffffff191681526001018473ffffffffffffffffffffffffffffffffffffffff1673ffffffffffffffffffffffffffffffffffffffff1660601b8152601401837effffffffffffffffffffffffffffffffffffffffffffffffffffffffffffff19167effffffffffffffffffffffffffffffffffffffffffffffffffffffffffffff191681526001018261ffff1661ffff1660f01b8152600201955050505050506040516020818303038152906040528051906020012060001c9050612767565b62ffffff8263ffffffff16116126045760d960f81b609460f81b84608360f81b8560405160200180867effffffffffffffffffffffffffffffffffffffffffffffffffffffffffffff19167effffffffffffffffffffffffffffffffffffffffffffffffffffffffffffff19168152600101857effffffffffffffffffffffffffffffffffffffffffffffffffffffffffffff19167effffffffffffffffffffffffffffffffffffffffffffffffffffffffffffff191681526001018473ffffffffffffffffffffffffffffffffffffffff1673ffffffffffffffffffffffffffffffffffffffff1660601b8152601401837effffffffffffffffffffffffffffffffffffffffffffffffffffffffffffff19167effffffffffffffffffffffffffffffffffffffffffffffffffffffffffffff191681526001018262ffffff1662ffffff1660e81b8152600301955050505050506040516020818303038152906040528051906020012060001c9050612767565b60da60f81b609460f81b84608460f81b8560405160200180867effffffffffffffffffffffffffffffffffffffffffffffffffffffffffffff19167effffffffffffffffffffffffffffffffffffffffffffffffffffffffffffff19168152600101857effffffffffffffffffffffffffffffffffffffffffffffffffffffffffffff19167effffffffffffffffffffffffffffffffffffffffffffffffffffffffffffff191681526001018473ffffffffffffffffffffffffffffffffffffffff1673ffffffffffffffffffffffffffffffffffffffff1660601b8152601401837effffffffffffffffffffffffffffffffffffffffffffffffffffffffffffff19167effffffffffffffffffffffffffffffffffffffffffffffffffffffffffffff191681526001018263ffffffff1663ffffffff1660e01b8152600401955050505050506040516020818303038152906040528051906020012060001c90505b92915050565b6000809054906101000a900473ffffffffffffffffffffffffffffffffffffffff1673ffffffffffffffffffffffffffffffffffffffff163373ffffffffffffffffffffffffffffffffffffffff1614612812576040517f08c379a00000000000000000000000000000000000000000000000000000000081526004018080602001828103825260288152602001806139d46028913960400191505060405180910390fd5b600460003373ffffffffffffffffffffffffffffffffffffffff1673ffffffffffffffffffffffffffffffffffffffff1681526020019081526020016000208190806001815401808255809150509060018203906000526020600020016000909192909190916101000a81548173ffffffffffffffffffffffffffffffffffffffff021916908373ffffffffffffffffffffffffffffffffffffffff160217905550507f725fbbb4ccd232262e4f8259cdf2983eb9baf6a603d9e3089253bdb95433f651828242604051808473ffffffffffffffffffffffffffffffffffffffff1673ffffffffffffffffffffffffffffffffffffffff1681526020018373ffffffffffffffffffffffffffffffffffffffff1673ffffffffffffffffffffffffffffffffffffffff168152602001828152602001935050505060405180910390a15050565b6000809054906101000a900473ffffffffffffffffffffffffffffffffffffffff1673ffffffffffffffffffffffffffffffffffffffff163373ffffffffffffffffffffffffffffffffffffffff16146129fd576040517f08c379a00000000000000000000000000000000000000000000000000000000081526004018080602001828103825260288152602001806139d46028913960400191505060405180910390fd5b6000612a0884613008565b9050600360003373ffffffffffffffffffffffffffffffffffffffff1673ffffffffffffffffffffffffffffffffffffffff1681526020019081526020016000208590806001815401808255809150509060018203906000526020600020016000909192909190916101000a81548173ffffffffffffffffffffffffffffffffffffffff021916908373ffffffffffffffffffffffffffffffffffffffff160217905550507fa2c426a9f9dcbd0804dc229cd255e9532a36104dcc1bd08fe92faa62b8296edf868686868642604051808773ffffffffffffffffffffffffffffffffffffffff1673ffffffffffffffffffffffffffffffffffffffff1681526020018673ffffffffffffffffffffffffffffffffffffffff1673ffffffffffffffffffffffffffffffffffffffff168152602001856005811115612b4857fe5b60ff16815260200184815260200180602001838152602001828103825284818151815260200191508051906020019080838360005b83811015612b98578082015181840152602081019050612b7d565b50505050905090810190601f168015612bc55780820380516001836020036101000a031916815260200191505b5097505050505050505060405180910390a1505050505050565b6000809054906101000a900473ffffffffffffffffffffffffffffffffffffffff1673ffffffffffffffffffffffffffffffffffffffff163373ffffffffffffffffffffffffffffffffffffffff1614612c84576040517f08c379a00000000000000000000000000000000000000000000000000000000081526004018080602001828103825260288152602001806139d46028913960400191505060405180910390fd5b6000612c8f84613008565b9050600660003373ffffffffffffffffffffffffffffffffffffffff1673ffffffffffffffffffffffffffffffffffffffff1681526020019081526020016000208590806001815401808255809150509060018203906000526020600020016000909192909190916101000a81548173ffffffffffffffffffffffffffffffffffffffff021916908373ffffffffffffffffffffffffffffffffffffffff160217905550508473ffffffffffffffffffffffffffffffffffffffff167f25958af122d222cce08bcd9b6de15fb4daee0ecd7f3e56aea9ee18e24d2f2dc78786868642604051808673ffffffffffffffffffffffffffffffffffffffff1673ffffffffffffffffffffffffffffffffffffffff168152602001856005811115612db357fe5b60ff16815260200184815260200180602001838152602001828103825284818151815260200191508051906020019080838360005b83811015612e03578082015181840152602081019050612de8565b50505050905090810190601f168015612e305780820380516001836020036101000a031916815260200191505b50965050505050505060405180910390a2505050505050565b6060600360008373ffffffffffffffffffffffffffffffffffffffff1673ffffffffffffffffffffffffffffffffffffffff168152602001908152602001600020805480602002602001604051908101604052809291908181526020018280548015612f0a57602002820191906000526020600020905b8160009054906101000a900473ffffffffffffffffffffffffffffffffffffffff1673ffffffffffffffffffffffffffffffffffffffff1681526020019060010190808311612ec0575b50505050509050919050565b6000809054906101000a900473ffffffffffffffffffffffffffffffffffffffff1681565b6060600160008373ffffffffffffffffffffffffffffffffffffffff1673ffffffffffffffffffffffffffffffffffffffff168152602001908152602001600020805480602002602001604051908101604052809291908181526020018280548015612ffc57602002820191906000526020600020905b8160009054906101000a900473ffffffffffffffffffffffffffffffffffffffff1673ffffffffffffffffffffffffffffffffffffffff1681526020019060010190808311612fb2575b50505050509050919050565b600080600581111561301657fe5b82600581111561302257fe5b14156130355762794a0042019050613165565b6001600581111561304257fe5b82600581111561304e57fe5b14156130615762f1428042019050613165565b6002600581111561306e57fe5b82600581111561307a57fe5b141561308e5763016a8c8042019050613165565b6003600581111561309b57fe5b8260058111156130a757fe5b14156130bb576301e1338042019050613165565b600460058111156130c857fe5b8260058111156130d457fe5b14156130e8576303c2670042019050613165565b6005808111156130f457fe5b82600581111561310057fe5b1415613114576305a39a8042019050613165565b6040517f08c379a000000000000000000000000000000000000000000000000000000000815260040180806020018281038252602e8152602001806139fc602e913960400191505060405180910390fd5b919050565b6107d7806131788339019056fe608060405234801561001057600080fd5b506040516107d73803806107d7833981810160405260a081101561003357600080fd5b810190808051906020019092919080519060200190929190805190602001909291908051906020019092919080519060200190929190505050846000806101000a81548173ffffffffffffffffffffffffffffffffffffffff021916908373ffffffffffffffffffffffffffffffffffffffff16021790555083600160006101000a81548173ffffffffffffffffffffffffffffffffffffffff021916908373ffffffffffffffffffffffffffffffffffffffff160217905550826002819055504260038190555080600460006101000a81548173ffffffffffffffffffffffffffffffffffffffff021916908373ffffffffffffffffffffffffffffffffffffffff1602179055506000819050505050505050610681806101566000396000f3fe608060405234801561001057600080fd5b506004361061007d5760003560e01c806382edaf941161005b57806382edaf94146101765780638da5cb5b146101c0578063cf09e0d01461020a578063f20760bf146102285761007d565b8063251c1aa314610082578063370158ea146100a057806349df728c14610132575b600080fd5b61008a610272565b6040518082815260200191505060405180910390f35b6100a8610278565b604051808673ffffffffffffffffffffffffffffffffffffffff1673ffffffffffffffffffffffffffffffffffffffff1681526020018573ffffffffffffffffffffffffffffffffffffffff1673ffffffffffffffffffffffffffffffffffffffff1681526020018481526020018381526020018281526020019550505050505060405180910390f35b6101746004803603602081101561014857600080fd5b81019080803573ffffffffffffffffffffffffffffffffffffffff1690602001909291905050506103b5565b005b61017e610599565b604051808273ffffffffffffffffffffffffffffffffffffffff1673ffffffffffffffffffffffffffffffffffffffff16815260200191505060405180910390f35b6101c86105bf565b604051808273ffffffffffffffffffffffffffffffffffffffff1673ffffffffffffffffffffffffffffffffffffffff16815260200191505060405180910390f35b6102126105e5565b6040518082815260200191505060405180910390f35b6102306105eb565b604051808273ffffffffffffffffffffffffffffffffffffffff1673ffffffffffffffffffffffffffffffffffffffff16815260200191505060405180910390f35b60025481565b6000806000806000803073ffffffffffffffffffffffffffffffffffffffff16905060008173ffffffffffffffffffffffffffffffffffffffff166370a08231306040518263ffffffff1660e01b8152600401808273ffffffffffffffffffffffffffffffffffffffff1673ffffffffffffffffffffffffffffffffffffffff16815260200191505060206040518083038186803b15801561031957600080fd5b505afa15801561032d573d6000803e3d6000fd5b505050506040513d602081101561034357600080fd5b810190808051906020019092919050505090506000809054906101000a900473ffffffffffffffffffffffffffffffffffffffff16600160009054906101000a900473ffffffffffffffffffffffffffffffffffffffff16600254600354849650965096509650965050509091929394565b600160009054906101000a900473ffffffffffffffffffffffffffffffffffffffff1673ffffffffffffffffffffffffffffffffffffffff163373ffffffffffffffffffffffffffffffffffffffff1614610478576040517f08c379a000000000000000000000000000000000000000000000000000000000815260040180806020018281038252601d8152602001807f53656e646572206d75737420626520636f6e7472616374206f776e657200000081525060200191505060405180910390fd5b6002544210156104d3576040517f08c379a000000000000000000000000000000000000000000000000000000000815260040180806020018281038252603c815260200180610611603c913960400191505060405180910390fd5b600081905060008173ffffffffffffffffffffffffffffffffffffffff166370a08231306040518263ffffffff1660e01b8152600401808273ffffffffffffffffffffffffffffffffffffffff1673ffffffffffffffffffffffffffffffffffffffff16815260200191505060206040518083038186803b15801561055757600080fd5b505afa15801561056b573d6000803e3d6000fd5b505050506040513d602081101561058157600080fd5b81019080805190602001909291905050509050505050565b600460009054906101000a900473ffffffffffffffffffffffffffffffffffffffff1681565b600160009054906101000a900473ffffffffffffffffffffffffffffffffffffffff1681565b60035481565b6000809054906101000a900473ffffffffffffffffffffffffffffffffffffffff168156fe5769746864726177616c206f6620746f6b656e73206f6e6c7920616c6c6f7765642061667465722074686520756e6c6f636b2074696d657374616d70a265627a7a72315820edc0f661de6a992fe65d7446276f731a0a6427643a7315b34cde4aa7734ed7a264736f6c634300051000324f6e6c792063616c6c61626c6520616674657220746865206c6f636b2073746172742074696d655461726765742061646472657373206d7573742062652063726561746564206279206120706172656e7420617420736f6d65206e6f6e63654f6e6c792063616c6c61626c65206265666f726520746865206c6f636b20656e642074696d6553656e646572206d757374206265206c6f636b64726f7020636f6e74726163742063726561746f72556e6c6f636b2074696d6520666f72207465726d2070726f7669646564206973206e6f7420737570706f72746564a265627a7a72315820523a7013ba8e66e05ea3bf428f07415ca0c6b5a3c05be6da82e78ba7ca826ab164736f6c63430005100032",
  "source": "// Original Source: https://github.com/hicommonwealth/edgeware-lockdrop\npragma solidity >=0.5.16 <0.7.0;\n\nimport \"./lib/StandardToken.sol\";\n\n/**\n * @title Lockdrop Wallet\n */\ncontract Lock {\n    address public lockdropCreator;\n    address public owner;\n    uint256 public unlockTime;\n    uint256 public createdAt;\n    address public tokenContractAddress;\n\n    modifier onlyOwner {\n        require(msg.sender == owner, \"Sender must be contract owner\");\n        _;\n    }\n\n    constructor (\n        address _lockdropCreator, address _owner, uint256 _unlockTime, uint256 tokenERC20Amount, address _tokenContractAddress\n    ) public {\n        lockdropCreator = _lockdropCreator;\n        owner = _owner;\n        unlockTime = _unlockTime;\n        createdAt = now;\n        tokenContractAddress = _tokenContractAddress;\n\n        StandardToken token = StandardToken(_tokenContractAddress);\n        // Transfer the amount of ERC20 tokens to the Lockdrop Wallet of the owner\n        // FIXME - returns `Error: Returned error: VM Exception while processing transaction: revert`\n        // token.transfer(address(this), tokenERC20Amount);\n        // // Ensure the Lockdrop Wallet contract has at least all the ERC20 tokens transferred, or fail\n        // assert(token.balanceOf(address(this)) >= tokenERC20Amount);\n\n        // emit Received(owner, tokenERC20Amount, _tokenContractAddress);\n    }\n\n    // // FIXME - unable to use since generates error `Error: Returned error: VM Exception while processing transaction: revert Fallback function prevented accidental sending of Ether to the contract -- Reason given: Fallback function prevented accidental sending of Ether to the contract.`\n    // // Fallback function prevent accidental sending of Ether to the contract\n    // function() external {\n    //     revert(\"Fallback function prevented accidental sending of Ether to the contract\");\n    // }\n\n    /**\n     * @dev        Withdraw only tokens implementing ERC20 after unlock timestamp. Callable only by owner\n     */\n    function withdrawTokens(address _tokenContractAddress) public onlyOwner {\n        require(now >= unlockTime, \"Withdrawal of tokens only allowed after the unlock timestamp\");\n        StandardToken token = StandardToken(_tokenContractAddress);\n        // FIXME - unable to use since generates error `Error: Returned error: VM Exception while processing transaction: revert`\n        uint256 tokenBalance = token.balanceOf(address(this));\n        // // Send the token balance of the ERC20 contract\n        // token.transfer(owner, tokenBalance);\n        // emit WithdrewTokens(_tokenContractAddress, msg.sender, tokenBalance);\n    }\n\n    /**\n     * @dev        Info returns owner, timestamp of unlock time, contract created timestamp,\n     *             and locked MXCToken balance\n     */\n   function info() public view returns(address, address, uint256, uint256, uint256) {\n        StandardToken token = StandardToken(address(this.tokenContractAddress));\n        uint256 tokenBalance = token.balanceOf(address(this));\n        return (lockdropCreator, owner, unlockTime, createdAt, tokenBalance);\n    }\n\n    event Received(address from, uint256 amount, address tokenContractAddress);\n    // event Withdrew(address to, uint256 amount);\n    event WithdrewTokens(address tokenContractAddress, address to, uint256 amount);\n}\n\n/**\n * @title Lockdrop Wallet Factory\n */\ncontract Lockdrop {\n    address public lockdropCreator;\n    mapping(address => address[]) lockWallets;\n    mapping(address => address[]) claimsLockedPending;\n    mapping(address => address[]) claimsLockedApproved;\n    mapping(address => address[]) claimsLockedRejected;\n    mapping(address => address[]) claimsSignalledPending;\n    mapping(address => address[]) claimsSignalledApproved;\n    mapping(address => address[]) claimsSignalledRejected;\n\n    modifier onlyLockdropCreator {\n        require(msg.sender == lockdropCreator, \"Sender must be lockdrop contract creator\");\n        _;\n    }\n\n    enum Term {\n        ThreeMo,\n        SixMo,\n        NineMo,\n        TwelveMo,\n        TwentyFourMo,\n        ThirtySixMo\n    }\n    // Time constants\n    uint256 constant public LOCK_DROP_PERIOD = 1 days * 92; // 3 months\n    uint256 public LOCK_START_TIME;\n    uint256 public LOCK_END_TIME;\n    // MXCToken locking events\n    event Locked(\n        address indexed lockdropCreator, address indexed owner, Term term, uint256 tokenERC20Amount, bytes dataHighwayPublicKey,\n        address tokenContractAddress, Lock lockAddr, bool isValidator, uint time\n    );\n    event Signaled(address indexed lockdropCreator, address indexed contractAddr, Term term, uint256 tokenERC20Amount,\n        bytes dataHighwayPublicKey, address tokenContractAddress, uint time);\n    event ClaimLockedPending(\n        address tokenContractAddress, Lock lockAddr, Term term, uint256 tokenERC20Amount, bytes dataHighwayPublicKey, uint time\n    );\n    event ClaimLockedApproved(\n        address tokenContractAddress, Lock lockAddr, Term term, uint256 tokenERC20Amount, bytes dataHighwayPublicKey, uint time\n    );\n    event ClaimLockedRejected(\n        address tokenContractAddress, Lock lockAddr, uint time\n    );\n    event ClaimSignalledPending(\n        address tokenContractAddress, address indexed contractAddr, Term term, uint256 tokenERC20Amount, bytes dataHighwayPublicKey, uint time\n    );\n    event ClaimSignalledApproved(\n        address tokenContractAddress, address indexed contractAddr, Term term, uint256 tokenERC20Amount, bytes dataHighwayPublicKey, uint time\n    );\n    event ClaimSignalledRejected(\n        address tokenContractAddress, address indexed contractAddr, Term term, uint256 tokenERC20Amount, bytes dataHighwayPublicKey, uint time\n    );\n\n    constructor(uint startTime) public {\n        lockdropCreator = msg.sender;\n        LOCK_START_TIME = startTime;\n        LOCK_END_TIME = startTime + LOCK_DROP_PERIOD;\n    }\n\n    // // FIXME - unable to use since generates error `Error: Returned error: VM Exception while processing transaction: revert Fallback function prevented accidental sending of Ether to the contract -- Reason given: Fallback function prevented accidental sending of Ether to the contract.`\n    // // Fallback function prevent accidental sending of Ether to the contract\n    // function() external {\n    //     revert(\"Fallback function prevented accidental sending of Ether to the contract\");\n    // }\n\n    function getLockWallets(address user)\n        public\n        view\n        returns(address[] memory)\n    {\n        return lockWallets[user];\n    }\n\n    /**\n     * @dev        Locks up the value sent to contract in a new Lock\n     * @param      owner        Owner of a Lock contract (differs from the Lockdrop contract creator)\n     * @param      term         The length of the lock up\n     * @param      dataHighwayPublicKey The bytes representation of the target DataHighway key\n     * @param      tokenERC20Amount The ERC20 token amount to be locked\n     * @param      _tokenContractAddress The ERC20 token contract (MXCToken)\n     * @param      isValidator  Indicates if sender wishes to be a validator\n     */\n    function lock(\n        address owner, Term term, uint256 tokenERC20Amount, bytes calldata dataHighwayPublicKey,\n        address _tokenContractAddress, bool isValidator\n    )\n        external\n        didStart\n        didNotEnd\n        returns(address lockWallet)\n    {\n        // Since it is not a `payable` function it cannot receive Ether\n        StandardToken token = StandardToken(_tokenContractAddress);\n        // Send the token balance of the ERC20 contract\n        uint256 tokenBalance = token.balanceOf(owner);\n        // FIXME - returns error `Error: Returned error: VM Exception while processing transaction: invalid opcode`.\n        // should this be `require` instead of `assert`?\n        // assert(tokenBalance > 0);\n        // assert(tokenERC20Amount > 0);\n        // assert(tokenERC20Amount <= tokenBalance);\n        uint256 unlockTime = unlockTimeForTerm(term);\n\n        // Create MXC lock contract\n        Lock lockAddr = new Lock(lockdropCreator, owner, unlockTime, tokenERC20Amount, _tokenContractAddress);\n        // Add wallet to sender's wallets.\n        lockWallets[msg.sender].push(address(lockAddr));\n        claimsLockedPending[msg.sender].push(address(lockAddr));\n        emit Locked(\n            lockdropCreator, owner, term, tokenERC20Amount, dataHighwayPublicKey, _tokenContractAddress, lockAddr,\n            isValidator, now\n        );\n        emit ClaimLockedPending(\n            _tokenContractAddress, lockAddr, term, tokenERC20Amount, dataHighwayPublicKey, now\n        );\n    }\n\n    /**\n     * @dev        Signals a contract's (or address's) balance decided after lock period\n     * @param      contractAddr  The contract address from which to signal the balance of\n     * @param      nonce         The transaction nonce of the creator of the contract\n     * @param      dataHighwayPublicKey   The bytes representation of the target DataHighway key\n     */\n    function signal(\n        address contractAddr, uint32 nonce, Term term, uint256 tokenERC20Amount,\n        bytes calldata dataHighwayPublicKey, address _tokenContractAddress\n    )\n        external\n        didStart\n        didNotEnd\n        didCreate(contractAddr, msg.sender, nonce)\n    {\n        // FIXME - is this enough info to store?\n        claimsSignalledPending[msg.sender].push(address(contractAddr));\n        emit Signaled(lockdropCreator, contractAddr, term, tokenERC20Amount, dataHighwayPublicKey, _tokenContractAddress, now);\n        emit ClaimSignalledPending(\n            _tokenContractAddress, contractAddr, term, tokenERC20Amount, dataHighwayPublicKey, now\n        );\n    }\n\n    function getClaimsLockedPending(address user)\n        public\n        view\n        returns(address[] memory)\n    {\n        return claimsLockedPending[user];\n    }\n\n    function getClaimsLockedApproved(address user)\n        public\n        view\n        returns(address[] memory)\n    {\n        return claimsLockedApproved[user];\n    }\n\n    function getClaimsLockedRejected(address user)\n        public\n        view\n        returns(address[] memory)\n    {\n        return claimsLockedRejected[user];\n    }\n\n    function getClaimsSignalledPending(address user)\n        public\n        view\n        returns(address[] memory)\n    {\n        return claimsSignalledPending[user];\n    }\n\n    function getClaimsSignalledApproved(address user)\n        public\n        view\n        returns(address[] memory)\n    {\n        return claimsSignalledApproved[user];\n    }\n\n    function getClaimsSignalledRejected(address user)\n        public\n        view\n        returns(address[] memory)\n    {\n        return claimsSignalledRejected[user];\n    }\n\n    // FIXME - initially we will only approve or reject. later we will partially approve\n    function claimLockedApproved(address _tokenContractAddress, Lock lockAddr, Term term,\n        uint256 tokenERC20Amount, bytes memory dataHighwayPublicKey)\n        public onlyLockdropCreator\n    {\n        uint256 unlockTime = unlockTimeForTerm(term);\n        // FIXME - do we need to store the _tokenContractAddress as well as the lockAddr\n        // in claimsLockedApproved to allow for tokens stored on MXC and IOTA-E ERC20 tokens?\n        // FIXME - how do we store unlockTime as the value of `claimsLockedApproved` too?\n        claimsLockedApproved[msg.sender].push(address(lockAddr));\n        emit ClaimLockedApproved(\n            _tokenContractAddress, lockAddr, term, tokenERC20Amount, dataHighwayPublicKey, now\n        );\n    }\n\n    function claimLockedRejected(address _tokenContractAddress, Lock lockAddr)\n        public onlyLockdropCreator\n    {\n        claimsLockedRejected[msg.sender].push(address(lockAddr));\n        emit ClaimLockedRejected(\n            _tokenContractAddress, lockAddr, now\n        );\n    }\n\n    // FIXME - initially we will only approve or reject. later we will partially approve\n    function claimSignalledApproved(address _tokenContractAddress, address contractAddr,\n        Term term, uint256 tokenERC20Amount, bytes memory dataHighwayPublicKey)\n        public onlyLockdropCreator\n    {\n        uint256 unlockTime = unlockTimeForTerm(term);\n        // FIXME - do we need to store the _tokenContractAddress as well as the lockAddr\n        // in claimsLockedApproved to allow for tokens stored on MXC and IOTA-E ERC20 tokens?\n        // FIXME - how do we store unlockTime as the value of `claimsLockedApproved` too?\n\n        // FIXME - is this enough info to store?\n        claimsSignalledApproved[msg.sender].push(address(contractAddr));\n        emit ClaimSignalledApproved(\n            _tokenContractAddress, contractAddr, term, tokenERC20Amount, dataHighwayPublicKey, now\n        );\n    }\n\n    function claimSignalledRejected(address _tokenContractAddress, address contractAddr,\n        Term term, uint256 tokenERC20Amount, bytes memory dataHighwayPublicKey)\n        public onlyLockdropCreator\n    {\n        claimsSignalledRejected[msg.sender].push(address(contractAddr));\n        emit ClaimSignalledRejected(\n            _tokenContractAddress, contractAddr, term, tokenERC20Amount, dataHighwayPublicKey, now\n        );\n    }\n\n    function unlockTimeForTerm(Term term) internal view returns (uint256) {\n        if (term == Term.ThreeMo) return now + 92 days;\n        if (term == Term.SixMo) return now + 183 days;\n        if (term == Term.NineMo) return now + 275 days;\n        if (term == Term.TwelveMo) return now + 365 days;\n        if (term == Term.TwentyFourMo) return now + 730 days;\n        if (term == Term.ThirtySixMo) return now + 1095 days;\n\n        revert(\"Unlock time for term provided is not supported\");\n    }\n\n    /**\n     * @dev        Rebuilds the contract address from a normal address and transaction nonce\n     * @param      _origin  The non-contract address derived from a user's public key\n     * @param      _nonce   The transaction nonce from which to generate a contract address\n     */\n    function addressFrom(address _origin, uint32 _nonce) public pure returns (address) {\n        if(_nonce == 0x00)     return address(uint160(uint256(\n            keccak256(abi.encodePacked(byte(0xd6), byte(0x94), _origin, byte(0x80))))));\n        if(_nonce <= 0x7f)     return address(uint160(uint256(\n            keccak256(abi.encodePacked(byte(0xd6), byte(0x94), _origin, uint8(_nonce))))));\n        if(_nonce <= 0xff)     return address(uint160(uint256(\n            keccak256(abi.encodePacked(byte(0xd7), byte(0x94), _origin, byte(0x81), uint8(_nonce))))));\n        if(_nonce <= 0xffff)   return address(uint160(uint256(\n            keccak256(abi.encodePacked(byte(0xd8), byte(0x94), _origin, byte(0x82), uint16(_nonce))))));\n        if(_nonce <= 0xffffff) return address(uint160(uint256(\n            keccak256(abi.encodePacked(byte(0xd9), byte(0x94), _origin, byte(0x83), uint24(_nonce))))));\n        return address(uint160(uint256(\n            // more than 2^32 nonces not realistic\n            keccak256(abi.encodePacked(byte(0xda), byte(0x94), _origin, byte(0x84), uint32(_nonce))))));\n    }\n\n    /**\n     * @dev        Ensures the lockdrop has started\n     */\n    modifier didStart() {\n        require(now >= LOCK_START_TIME, \"Only callable after the lock start time\");\n        _;\n    }\n\n    /**\n     * @dev        Ensures the lockdrop has not ended\n     */\n    modifier didNotEnd() {\n        require(now <= LOCK_END_TIME, \"Only callable before the lock end time\");\n        _;\n    }\n\n    /**\n     * @dev        Ensures the target address was created by a parent at some nonce\n     * @param      target  The target contract address (or trivially the parent)\n     * @param      parent  The creator of the alleged contract address\n     * @param      nonce   The creator's tx nonce at the time of the contract creation\n     */\n    modifier didCreate(address target, address parent, uint32 nonce) {\n        // Trivially let senders \"create\" themselves\n        if (target == parent) {\n            _;\n        } else {\n            require(target == addressFrom(parent, nonce), \"Target address must be created by a parent at some nonce\");\n            _;\n        }\n    }\n}\n",
  "sourcePath": "/Users/ls/code/src/DataHighway-com/mining/contracts/Lockdrop.sol",
  "compiler": {
    "name": "solc",
    "version": "0.5.16+commit.9c3226ce.Emscripten.clang"
  },
  "schemaVersion": "3.0.23",
  "updatedAt": "2020-06-18T07:47:36.349Z",
  "networkType": "ethereum",
  "devdoc": {
    "methods": {
      "addressFrom(address,uint32)": {
        "details": "Rebuilds the contract address from a normal address and transaction nonce",
        "params": {
          "_nonce": "The transaction nonce from which to generate a contract address",
          "_origin": "The non-contract address derived from a user's public key"
        }
      },
      "lock(address,uint8,uint256,bytes,address,bool)": {
        "details": "Locks up the value sent to contract in a new Lock",
        "params": {
          "_tokenContractAddress": "The ERC20 token contract (MXCToken)",
          "dataHighwayPublicKey": "The bytes representation of the target DataHighway key",
          "isValidator": "Indicates if sender wishes to be a validator",
          "owner": "Owner of a Lock contract (differs from the Lockdrop contract creator)",
          "term": "The length of the lock up",
          "tokenERC20Amount": "The ERC20 token amount to be locked"
        }
      },
      "signal(address,uint32,uint8,uint256,bytes,address)": {
        "details": "Signals a contract's (or address's) balance decided after lock period",
        "params": {
          "contractAddr": "The contract address from which to signal the balance of",
          "dataHighwayPublicKey": "The bytes representation of the target DataHighway key",
          "nonce": "The transaction nonce of the creator of the contract"
        }
      }
    },
    "title": "Lockdrop Wallet Factory"
  },
  "userdoc": {
    "methods": {}
  }
}